:1000000093C418952BC0189587C018951895189506
:100010007EC118952EC018951895189518958D0ABB
:100020000000A91F0000EC8300008BC00100182F06
:100030000600BE750F00B802EF021B03470328023B
:100040003E025F027A0287028B0228025F02800270
:10005000A202C302CE022100D0000000189500E0E9
:100060000ABD02BF0EE109BD03E003BF02E00ABD05
:100070000895FA93EA9367D02FB721D00F5F1F4FEF
:10008000008311830281002319F002810A95028303
:10009000B39B889A2FBF099119912991E991F99100
:1000A000189500E00ABDF89402BFE0EDF0E000838F
:1000B000018302E00ABD4EC0F89401D04BC0E0EDD0
:1000C000F0E0008111810895F89400E205BF789472
:1000D000889508959801E5DF01C0F6DFEDDF02178E
:1000E0001307D8F308950EE10093D20001C0ECDFAE
:1000F0000091D2000023D9F7089500E000BF07BDAA
:100100000FEF0DBD00E00EBD0FBD0CBD01E600BF41
:10011000089500E00EBDFBCFFA93EA9313D03FB7EA
:100120001CD00785073010F4039501C000E0078755
:10013000008917852189121708F403950EBD3FBF6A
:1001400023D1ACCF3A932A931A930A93089504D0FB
:100150000681178178940895F894E3EDF0E008950E
:10016000063008F005E0F0E0000FFF1F000FE02F61
:10017000FF1FE25EFF4F4591559165917491E7DF56
:10018000EBDF408351836283738302871387789404
:10019000C49A0895E5CFF9D3202FE2DF2223C1F1DD
:1001A000DCDF80819181A281B381F89403EA12E0BF
:1001B00020E000831183228323831DC049E050E0A7
:1001C00060E070E0C3D32801390146E450E060E00C
:1001D00070E08C019D01BAD3400E511E621E731E49
:1001E000F894E3ED74D0040D151D261D371D008312
:1001F00011832283338378946AD0081719072A075A
:100200003B07E0F2F89480839183A283B3837894D0
:10021000E8E0C4C3BCD303ED10E02801F801C499A1
:1002200006C000E000870187008B018B4EC08285ED
:100230009385A2894CD0083040E014072407340786
:1002400078F1068117810817190728F4AA95AC3EA2
:1002500054F4019707C08017910728F4A395A5319E
:1002600014F00196A0E004851585F8013596E8178D
:10027000F90728F0FC013296E017F10718F4F201B3
:1002800084879587F20144855585042F052B19F441
:1002900000E010E005C060E070E00081118156D3FD
:1002A000A093E500E3ED82879387093F27E01207DB
:1002B00010F008EF17E000871187F894202F2770BF
:1002C000218B43E040D3008B7894E6E069C3008142
:1002D0001181228133810895C498089502E040DF9E
:1002E00006E910E0F7DEF8DF00E911E0F3CEF8945C
:1002F0000091D70078940D51089500E808B90FE8EF
:1003000007B90CE806B900E003B9369A08958A9354
:10031000FA93EA933A922A921A920A927A936A93F9
:100320005A934A930FDF8FB70091E100002321F029
:100330000A950093E10019C001E00093E10007B1C4
:100340000F3849F401E807B904B10093D70005B1AB
:100350000093D8000AC00FE807B904B10093D90090
:1003600005B10093DA00789455DF369A8FBF0CD030
:1003700049915991699179910990199029903990F1
:10038000E991F991899118950991199129913991DA
:100390000895E199FECF30E03FBB0EBB1DBB0FB708
:1003A000F894E29AE19A0FBF3FBB3EBB0895E199F2
:1003B000FECF10E01FBB0EBBE09A1FBB1EBB0DB3F0
:1003C0000895F89400E006B9A4DE00E00ABD08E054
:1003D00008BB05BB00E60ABF00E20BBF04EB05BF8C
:1003E00000EB05BF78948895F89400E00BBF05BF3B
:1003F00009E008BB34DE81DE80DFACCEF89400E893
:1004000006BD02E006BD00E00CBD02E000BD04E157
:1004100009BF03E107BB04E004BB00E808B9D1CF82
:1004200000E06FD00093E600089506E06DD000E094
:10043000F9CFAFD2B39902C001E001C000E0A6EE4F
:10044000B0E01091E700112369F01A95D9F01A95E0
:1004500051F11A9591F11A95B9F11A9581F11A9500
:10046000F9F149C0002319F001E04ED007C0009116
:10047000E800002319F404E00093E80000E0009392
:10048000E60039C0002351F017DE0132134098F125
:1004900005E037D00C9103950C932DC00C9103957A
:1004A0000C9302E018C0002311F001E017C004DE35
:1004B0000139114000F103E00EC000E00FC000233D
:1004C00061F0EFDD04E007C0002339F0F5DD013213
:1004D000134088F005E015D00EC006E012D00AC027
:1004E000002341F4E9DD053620E0104020F02093A0
:1004F000E70001C0D6DD0091E7001091E600E4E0DE
:1005000051C20093E70008950093E700CACD43D29B
:10051000E3DE04EF11E0DEDD1FD0889808ECFED0AA
:1005200098E20091E800013011F490E107C0033037
:1005300029F494E003C010D004E6F0D0CDDE80E0D2
:1005400001C083958917B8F7E8D0889903C092D184
:1005500056D0B9F7E2E028C284D01CCE3ED071F468
:100560000081043009F40895002321F401E00083A0
:10057000018105C0013011F40481018302C00483AC
:100580000ACE04E0008308956FD009F070C037D020
:1005900009F40895002339F448DF02E00093E800ED
:1005A0000091EA0081C05DD0053010F403957CD045
:1005B000089513D009F0E5CF0081043009F40895BF
:1005C000002321F403E000830381D9CF04810023B9
:1005D00019F00A950483DFDD0895E8EEF0E0058167
:1005E0000023089541D009F042C009D009F40895CC
:1005F000002309F4F8C08BDF18DF33D0CCCD009195
:10060000E800043008951091EC000091E800002308
:1006100039F00A9589F00A9599F00A95A9F018C061
:1006200023D029F000E00093ED0058DE03C001E084
:100630000093ED0053DE1BC01093E90002E007C0F9
:100640001093EA0003E003C01093EB0004E096D09F
:1006500004D0A0DD62D001D09DCD3EDE0AEF10E0D7
:1006600039DD0091EC0008950091ED00B9CF04E070
:100670000093E8000895F8DF09F0F9CFC0DF09F42E
:100680000895002359F40DDD05C016DD013717412B
:1006900008F0CED0B39BF9CFEADF03CDE2DF002331
:1006A00011F00A9501D0FDCC0093EC0074CD77D009
:1006B000A5DE04E133D007C016DDB39BFDCFB0DE6D
:1006C00012DD7FDE10DDB5DE035019F0025091F02F
:1006D00019C01A9539F01A9539F01A9539F01A950A
:1006E00039F010C03BDF0EC064DF0CC07BDF0AC0F6
:1006F0008ADF08C01A9519F01A9519F003C044DF73
:1007000001C0B9DFF0DC7BDF29F4E6DD00E0009317
:10071000E800D3CFAFD0DAD0D6CF0AEF10E0DACCF2
:1007200036D1502ED90143DE0C93452C00E1400E0A
:10073000042D3DDE802F0AEA8027952D905E092F3B
:1007400036DE15E50127FD011081181749F4101751
:1007500021F005E51027092F1CDE00E0E6E020C1AE
:10076000101721F40AEA1027042DF6CF801721F480
:100770008C93182F052DF0CF01E0F0CF0CD1C801DC
:1007800008DE192F0AEA1027082F005F02DE05E5B0
:100790009027192F805E082FFCDDE2E005C129EECD
:1007A00030E002E01DD019F003E00093E9002AEEEA
:1007B00030E003E015D019F000E00093EA002BEEE2
:1007C00030E004E00DD019F005E00093EB002FEECF
:1007D00030E001E005D019F001E40093EF00089546
:1007E0009FDF00230895D6D077DD1ED0C8011CD02E
:1007F000800F911F96958795A1E004E0EA2FF0E025
:10080000EE0FFF1FEC5CFF4F259134918217930789
:1008100018F0A3950A9591F70A2FAA95002311F0D5
:100820005DDDFACFE3E0BFC00AEF10E053DC8FCC10
:1008300001E40093EF0011E401E0A0DF05E0AADC91
:10084000B39BFECF04EF11E045DCB399FECF44DD4E
:1008500008EC10E03FDCB39908C02EDC013D1740E6
:10086000D0F345DD0093EF0039DD1091EF0001E09A
:1008700085DF34CD90D00091EC0010E0000F111F07
:10088000EEE3F0E0E00FF11F0091E800023009F420
:100890003C96859194915BDC0817190798F4E0EF7A
:1008A000F0E00081039500830B3078F00091EC00BC
:1008B000002321F404E00093E80004C00A950093AB
:1008C000EC0069DC00E00093F00067CF10DD202F22
:1008D000EEEEF0E00081039500834181042F142F98
:1008E000110F110B065F1F4F322F330F330B0217FF
:1008F00013073CF400810B3098F004E00093E8000B
:10090000089542175CF400810B3050F00091EC0028
:10091000053031F404E00093EC003DCC00E00083AE
:10092000089500008895FECF0FEC0DBF00E00EBFCC
:10093000C0E9D0E040D0002309F04BD0B8DEF1DFB1
:10094000F0CF169507954A95E2F7089500241124F3
:100950001001E0E2001F111F221F331FEA9572F001
:10096000001C111C221C331C041615062606370613
:1009700088F3041A150A260A370AECCFA001B10140
:10098000009510952095309508957A926A925A9222
:100990004A92BA93AA939A938A9308957F806E801D
:1009A0005D804C80BB81AA8199818881F0E0EC0F49
:1009B000FD1FEF01089501E0089520E02D930150FF
:1009C0001040E1F7089525912D9301501040D9F77B
:1009D000089586E590E0FC0105911491FC013296A2
:1009E000A591B491FC01349625913491422F432B6B
:1009F00019F0F901E8DF01C0E0DF069610E08C3560
:060A0000910748F3089580
:00092801CE
:00000001FF
