:10000000F0C418952BC0189599C018951895189597
:10001000A6C118952EC018951895189518958F0A91
:100020000000AD1F0000FE830000C6C00100E92FE4
:100030000600C8770F00C302FA02270353033302F6
:1000400049026B0285029202970233026B028C0214
:10005000AD02CE02D9022600F0000000189500E0A3
:100060000ABD02BF0EE109BD03E003BF02E00ABD05
:100070000895FA93EA9378D031D01FD0EAE0F1E006
:100080001CD00091F400002329F00091F4000A959F
:100090000093F4000091F2001091F300012B39F06D
:1000A0001DD0028113810150104002831383B39B42
:1000B000889A55D0E991F9911895008111810F5FC7
:1000C0001F4F00831183089500E00ABDF89402BF1A
:1000D00005D00083018302E00ABD50C0E0EFF0E0EC
:1000E0000895F894FBDF0081118148C0F89400E284
:1000F00005BF7894889508959801E6DF01C0F6DF82
:10010000F0DF02171307D8F308950EE10093F4000F
:1001100001C0ECDF0091F4000023D9F7089500E05E
:1001200000BF07BD0FEF0DBD00E00EBD0FBD0CBD44
:1001300001E600BF089500E00EBDFBCF15D0009191
:100140000501039500930501077010910401011743
:100150000091030108F403950EBD01D018952FBF3F
:1001600009911991299108952A931A930A932FB707
:100170000895F894E5EFF0E00681178178940895EA
:10018000063008F005E0F0E0000FFF1F000FE02F41
:10019000FF1FE25EFF4F4591559165917491E9DF34
:1001A000F894E5EFF0E04083518362837383008726
:1001B0001187C49AE3CFE4CF45D4202FE1DF222377
:1001C000F9F1E5EFF0E04080518062807380F894AF
:1001D00003EA12E020E0008311832283238323C0FB
:1001E00080819181A281B381F89446E450E060E07F
:1001F00070E08201930107D44801590149E050E0C1
:1002000060E070E08C019D01FED3800E911EA21E65
:10021000B31EE5EF84D0080D191D2A1D3B1D008378
:1002200011832283338378947AD00415150526052B
:100230003705B0F2F89440825182628273827894DA
:10024000ECE00DC407D4A5EFB0E0C49907C0FD01F0
:1002500000E004870587068707875CC00D911D9124
:100260002D913C9113978091060108301040204059
:100270003040FD0110F453D03BC00681178120852A
:1002800031850217130738F48A958C3E94F444D0D4
:10029000015010400BC0208531852017310748F4EC
:1002A0008395853134F038D00F5F1F4F0087118759
:1002B00080E02285338589010B5F1F4F4085518582
:1002C0000417150730F028D00E5F1F4F02171307D1
:1002D00018F422D00287138742855385042F052BFB
:1002E00019F400E010E004C060E070E018D08BD397
:1002F00080930601093F27E0120710F008EF17E08E
:10030000EA2F04871587F894202F2770278743E06A
:1003100077D30687E4E0ABC300851185089500819B
:100320001181228133810895C498089502E028DF65
:1003300006E910E0E1DEF8DF00E911E0DDCEF89437
:100340000091F90078940D51089500E808B90FE87C
:1003500007B90CE806B900E003B9369A08958A9304
:10036000FA93EA933A922A921A920A927A936A93A9
:100370005A934A933A932A931A930A938FB7009108
:100380000701002321F00A950093070119C001E03D
:100390000093070107B10F3849F401E807B904B128
:1003A0000093F90005B10093FA000AC00FE807B9FD
:1003B00004B10093FB0005B10093FC00789442DF88
:1003C000369A8FBF09911991299139914991599183
:1003D000699179910990199029903990E991F99151
:1003E00089911895E199FECF30E03FBB0EBB1DBB54
:1003F0000FB7F894E29AE19A0FBF3FBB3EBB089556
:10040000E199FECF10E01FBB0EBBE09A1FBB1EBBE5
:100410000DB30895F89400E006B98DDE00E00ABD42
:1004200008E008BB05BB00E60ABF00E20BBF04EB17
:1004300005BF00EB05BF78948895F89400E00BBFEA
:1004400005BF09E008BB0BDE6ADE7FDF97CEF894BC
:1004500000E806BD02E006BD00E00CBD02E000BD04
:1004600004E109BF03E107BB04E004BB00E808B9ED
:10047000D1CFF894EAE0F1E000E0008301837894C2
:100480000895F894EAE0F1E000811181F8CF00E0EE
:1004900072D000930801089506E070D000E0F9CF13
:1004A000D9D2B39902C001E001C000E0A8E0B1E0F8
:1004B00010910901112371F01A95E1F01A9569F173
:1004C0001A95A9F11A95D1F11A9599F11A9509F48D
:1004D00041C04BC0002319F001E050D007C000918B
:1004E0000C01002319F404E000930C0100E00093D8
:1004F00008013BC0002351F0C4DF01321340A8F1D2
:1005000005E039D00C9103950C932FC0FD010081BB
:100510000395008302E0018328C0002311F001E06D
:1005200017C0AFDF0139114000F103E00EC000E059
:100530000FC0002361F09DDF04E007C0002339F005
:10054000A0DF0132134088F005E015D00EC006E0B0
:1005500012D00AC0002341F494DF053640E0104079
:1005600020F04093090101C084DF0091090110913E
:100570000801E4E07CC20093090108950093090199
:1005800078CF3ED03AD004EF11E000831183789405
:10059000089566D011DE00E00093120108952091C5
:1005A0001201222349F129D000811181012B21F56B
:1005B0007DD011F0002309F4EECF2A9519F02A9589
:1005C00091F008951DD000910C01013019F400EA5A
:1005D0001FE007C0023019F400E117E202C008EE84
:1005E00013E00BD0D2CF3CD0E6DD01E0D5DFF894AC
:1005F00004D004E610E0C9DF0895E2EFF0E00895CA
:1006000093DE02E0C9DFF894089541D071F40081CF
:10061000043009F40895002321F401E000830181EE
:1006200005C0013011F40481018302C00483C4CDEC
:1006300004E0008308956BD009F06CC037D009F452
:100640000895002339F428DF02E000930C010091A3
:100650000E0180C005D0053010F403957BD00895BD
:1006600000911001089513D009F0E2CF0081043009
:1006700009F40895002321F403E000830381D6CF19
:100680000481002319F00A95048396DD0895ECE0B7
:10069000F1E00581002308953AD031F407D009F440
:1006A0000895002311F4FCD035C06BCF00910C01EC
:1006B000043008951091100100910C01002339F0CD
:1006C0000A9589F00A9599F00A95A9F018C01FD0EB
:1006D00029F000E00093110129DE03C001E000933E
:1006E000110124DE17C010930D0102E007C0109322
:1006F0000E0103E003C010930F0104E09CD00ED064
:100700005ADD02D00BD057CD0AEF10E0F5CC0091A6
:100710001101C0CF04E000930C01089505DEF4DF61
:100720009FCFF5DF09F0F6CFC1DF09F4089500236C
:1007300059F4CADC05C0D5DC0137174108F0D5D023
:10074000B39BF9CFE7DFC0CC8BDF002311F00A9514
:1007500001D0BACC009310012FCD7ED078DE04E119
:10076000D4DF07C0D2DCB39BFDCF91DECEDC52DEFE
:10077000CCDC96DE0A9529F0025051F00250C9F007
:1007800020C0009112010023E1F003DF85DE19C0D3
:100790001A9539F01A9539F01A9539F01A9539F0F9
:1007A00010C033DF0EC05FDF0CC076DF0AC082DF0F
:1007B00008C01A9519F01A9519F003C03CDF01C062
:1007C000B0DFEDDEA2DC72DF29F4AEDD00E00093E5
:1007D0000C01C9CFACD0D7D0CCCF3AD1502ED90153
:1007E0000FDE0C93452C00E1400E042D09DE802F16
:1007F0000AEA8027952D905E092F02DE15E5012774
:10080000FD011081181749F4101721F005E5102794
:10081000092FE8DD00E0E6E028C1101721F40AEA1C
:100820001027042DF6CF801721F48C93182F052D57
:10083000F0CF01E0F0CF10D1C801D4DD192F0AEAC2
:100840001027082F005FCEDD05E59027192F805E69
:10085000082FC8DDE2E00DC12DE031E002E01DD03F
:1008600019F003E000930D012EE031E003E015D014
:1008700019F000E000930E012FE031E004E00DD00C
:1008800019F005E000930F0124E131E001E005D00B
:1008900019F001E40093140108959FDF00230895E7
:1008A000DAD042DD1ED0C8011CD0800F911F969572
:1008B0008795A1E004E0EA2FF0E0EE0FFF1FEC5C6B
:1008C000FF4F259134918217930718F0A3950A954D
:1008D00091F70A2FAA95002311F028DDFACFE3E063
:1008E000C7C00AEF10E008DC44CC01E40093140117
:1008F00011E401E0A0DF05E05EDCB39BFECF04EF76
:1009000011E0FADBB399FECF0FDD08EC10E0F4DB69
:10091000B39908C0E6DB013D1740D0F310DD00932A
:10092000140104DD1091140101E085DFFFCC94D0A7
:100930000091100110E0000F111FEEE3F0E0E00F56
:10094000F11F00910C01023009F43C9685919491BD
:1009500010DC0817190798F4E5E1F1E00081039530
:1009600000830B3078F000911001002321F404E0A3
:1009700000930C0104C00A95009310011DDC00E0F7
:100980000093150167CFDBDC202FE3E1F1E000816C
:10099000039500834181042F142F110F110B065F63
:1009A0001F4F322F330F330B021713073CF4008114
:1009B0000B3098F004E000930C01089542175CF4AA
:1009C00000810B3050F000911001053031F404E04B
:1009D00000931001F1CB00E000830895000088959A
:1009E000FECF0FEE0DBF00E00EBFC0E9D0E048D053
:1009F000002309F053D0B1DEF1DFF0CF1695079553
:100A00004A95E2F70895002411241001E0E2001F46
:100A1000111F221F331FEA9572F0001C111C221CAB
:100A2000331C041615062606370688F3041A150A21
:100A3000260A370AECCFA001B10100951095209548
:100A400030950895BA92AA929A928A927A926A926C
:100A50005A924A92BA93AA939A938A930895BB841E
:100A6000AA84998488847F806E805D804C80BB815D
:100A7000AA8199818881F0E0EC0FFD1FEF010895B4
:100A800001E0089520E02D9301501040E1F7089512
:100A900025912D9301501040D9F7089586E590E0F7
:100AA000FC0105911491FC013296A591B491FC01D1
:100AB000349625913491422F432B19F0F901E8DF48
:100AC00001C0E0DF069610E08C35910748F30895E9
:0009E20114
:00000001FF
