:10000000A4C418952BC0189588C0189518951895F4
:1000100090C118952EC018951895189518958F0AA7
:100020000000AD1F0000FE830000C6C00100E92FE4
:100030000600C8770F00C302FA02270353033302F6
:1000400049026B0285029202970233026B028C0214
:10005000AD02CE02D9022100F0000000189500E0A8
:100060000ABD02BF0EE109BD03E003BF02E00ABD05
:100070000895FA93EA9362D023D00F5F1F4F008355
:1000800011830281002319F002810A950283B39B38
:10009000889A03D0E991F99118952FBF0991199188
:1000A0002991089500E00ABDF89402BFE0EFF0E066
:1000B0000083018302E00ABD4BC0F89401D048C020
:1000C000E0EFF0E0008111810895F89400E205BFAF
:1000D0007894889508959801E5DF01C0F6DFEDDF9B
:1000E00002171307D8F308950EE10093F20001C040
:1000F000ECDF0091F2000023D9F7089500E000BF83
:1001000007BD0FEF0DBD00E00EBD0FBD0CBD01E63C
:1001100000BF089500E00EBDFBCF10D00091030199
:1001200003950093030107701091020101170091DC
:10013000010108F403950EBDB0DF18952A931A93B8
:100140000A932FB70895F894E3EFF0E00681178142
:1001500078940895063008F005E0F0E0000FFF1FE6
:10016000000FE02FFF1FE25EFF4F45915591659113
:100170007491E9DFF894E3EFF0E040835183628308
:10018000738300871187C49AE3CFE4CF0FD4202F65
:10019000E1DF2223F9F1E3EFF0E04080518062805B
:1001A0007380F89403EA12E020E000831183228335
:1001B000238323C080819181A281B381F89446E496
:1001C00050E060E070E082019301D1D34801590111
:1001D00049E050E060E070E08C019D01C8D3800EE2
:1001E000911EA21EB31EE3EF84D0080D191D2A1D17
:1001F0003B1D008311832283338378947AD00415C6
:10020000150526053705B0F2F894408251826282C6
:1002100073827894ECE0D7C3D1D3A3EFB0E0C49954
:1002200007C0FD0100E004870587068707875CC0DB
:100230000D911D912D913C911397809104010830EF
:10024000104020403040FD0110F453D03BC00681E7
:100250001781208531850217130738F48A958C3E63
:1002600094F444D0015010400BC0208531852017F4
:10027000310748F48395853134F038D00F5F1F4F34
:100280000087118780E02285338589010B5F1F4F2E
:10029000408551850417150730F028D00E5F1F4F99
:1002A0000217130718F422D002871387428553855B
:1002B000042F052B19F400E010E004C060E070E0AA
:1002C00018D055D380930401093F27E0120710F09E
:1002D00008EF17E0EA2F04871587F894202F27707E
:1002E000278743E041D30687E4E075C30085118585
:1002F000089500811181228133810895C498089561
:1003000002E028DF06E910E0E6DEF8DF00E911E0B0
:10031000E2CEF8940091F70078940D51089500E82A
:1003200008B90FE807B90CE806B900E003B9369A36
:1003300008958A93FA93EA933A922A921A920A9229
:100340007A936A935A934A933A932A931A930A9305
:100350008FB700910501002321F00A950093050154
:1003600019C001E00093050107B10F3849F401E815
:1003700007B904B10093F70005B10093F8000AC073
:100380000FE807B904B10093F90005B10093FA0032
:10039000789442DF369A8FBF81DE39914991599125
:1003A000699179910990199029903990E991F99181
:1003B00089911895E199FECF30E03FBB0EBB1DBB84
:1003C0000FB7F894E29AE19A0FBF3FBB3EBB089586
:1003D000E199FECF10E01FBB0EBBE09A1FBB1EBB16
:1003E0000DB30895F89400E006B994DE00E00ABD6C
:1003F00008E008BB05BB00E60ABF00E20BBF04EB48
:1004000005BF00EB05BF78948895F89400E00BBF1A
:1004100005BF09E008BB23DE71DE81DF99CEF894C9
:1004200000E806BD02E006BD00E00CBD02E000BD34
:1004300004E109BF03E107BB04E004BB00E808B91D
:10044000D1CF00E06FD000930601089506E06DD093
:1004500000E0F9CFB3D2B39902C001E001C000E0DF
:10046000A6E0B1E010910701112369F01A95D9F0C7
:100470001A9551F11A9591F11A95B9F11A9581F1E0
:100480001A95F9F149C0002319F001E04ED007C0D8
:1004900000910801002319F404E00093080100E032
:1004A0000093060139C0002351F007DE01321340EA
:1004B00098F105E037D00C9103950C932DC00C9169
:1004C00003950C9302E018C0002311F001E017C05F
:1004D000F4DD0139114000F103E00EC000E00FC06F
:1004E000002361F0DFDD04E007C0002339F0E5DD23
:1004F0000132134088F005E015D00EC006E012D09E
:100500000AC0002341F4D9DD053620E0104020F078
:100510002093070101C0C6DD00910701109106017B
:10052000E4E059C200930701089500930701BACD92
:1005300047D2E4DE04EF11E0CEDD1FD0889808EC4E
:10054000FED098E200910801013011F490E107C05B
:10055000033029F494E003C010D004E6F0D0CEDEDE
:1005600080E001C083958917B8F7E8D0889903C067
:1005700092D156D0B9F7E2E030C284D006CE3ED058
:1005800071F40081043009F40895002321F401E09E
:100590000083018105C0013011F40481018302C090
:1005A0000483F4CD04E0008308956FD009F070C097
:1005B00037D009F40895002339F448DF02E00093AE
:1005C000080100910A0181C05DD0053010F4039547
:1005D0007CD0089513D009F0E5CF0081043009F4F0
:1005E0000895002321F403E000830381D9CF04811F
:1005F000002319F00A950483C9DD0895E8E0F1E0CD
:1006000005810023089541D009F042C009D009F4C2
:100610000895002309F4F8C08BDF18DF33D0B6CD7E
:10062000009108010430089510910C010091080117
:10063000002339F00A9589F00A9599F00A95A9F0F6
:1006400018C023D029F000E000930D0159DE03C04B
:1006500001E000930D0154DE1BC01093090102E07C
:1006600007C010930A0103E003C010930B0104E0DC
:1006700096D004D08ADD62D001D087CD3FDE0AEF6C
:1006800010E029DD00910C01089500910D01B9CF12
:1006900004E0009308010895F8DF09F0F9CFC0DF06
:1006A00009F40895002359F4FDDC05C006DD013787
:1006B000174108F0CED0B39BF9CFEADFF3CCE2DFED
:1006C000002311F00A9501D0EDCC00930C015ECD12
:1006D00077D0A5DE04E133D007C006DDB39BFDCFA4
:1006E000B0DE02DD7FDE00DDB5DE035019F0025022
:1006F00091F019C01A9539F01A9539F01A9539F018
:100700001A9539F010C03BDF0EC064DF0CC07BDFF0
:100710000AC08ADF08C01A9519F01A9519F003C0AB
:1007200044DF01C0B9DFE0DC7BDF29F4E7DD00E076
:1007300000930801D3CFAFD0DAD0D6CF0AEF10E0C4
:10074000CACC3AD1502ED90143DE0C93452C00E19E
:10075000400E042D3DDE802F0AEA8027952D905E05
:10076000092F36DE15E50127FD011081181749F420
:10077000101721F005E51027092F1CDE00E0E6E048
:1007800028C1101721F40AEA1027042DF6CF80178C
:1007900021F48C93182F052DF0CF01E0F0CF10D16C
:1007A000C80108DE192F0AEA1027082F005F02DEB1
:1007B00005E59027192F805E082FFCDDE2E00DC1D2
:1007C00029E031E002E01DD019F003E000930901B7
:1007D0002AE031E003E015D019F000E000930A01AF
:1007E0002BE031E004E00DD019F005E000930B019F
:1007F0002FE031E001E005D019F001E400930F0192
:1008000008959FDF00230895DAD078DD1ED0C80157
:100810001CD0800F911F96958795A1E004E0EA2FE8
:10082000F0E0EE0FFF1FEC5CFF4F25913491821733
:10083000930718F0A3950A9591F70A2FAA9500231C
:1008400011F05EDDFACFE3E0C7C00AEF10E043DC51
:100850007ACC01E400930F0111E401E0A0DF05E090
:1008600094DCB39BFECF04EF11E035DCB399FECFEF
:1008700045DD08EC10E02FDCB39908C01EDC013D1B
:100880001740D0F346DD00930F013ADD10910F01C0
:1008900001E085DF35CD94D000910C0110E0000F10
:1008A000111FEEE3F0E0E00FF11F009108010230AC
:1008B00009F43C968591949146DC0817190798F441
:1008C000E0E1F1E00081039500830B3078F00091C6
:1008D0000C01002321F404E00093080104C00A95F0
:1008E00000930C0153DC00E00093100167CF11DD91
:1008F000202FEEE0F1E00081039500834181042F79
:10090000142F110F110B065F1F4F322F330F330BB4
:10091000021713073CF400810B3098F004E00093B9
:100920000801089542175CF400810B3050F00091EB
:100930000C01053031F404E000930C0127CC00E0F9
:100940000083089500008895FECF0FEE0DBF00E0F4
:100950000EBFC0E9D0E048D0002309F053D0B8DE84
:10096000F1DFF0CF169507954A95E2F70895002438
:1009700011241001E0E2001F111F221F331FEA950E
:1009800072F0001C111C221C331C041615062606CE
:10099000370688F3041A150A260A370AECCFA00195
:1009A000B10100951095209530950895BA92AA92BC
:1009B0009A928A927A926A925A924A92BA93AA9395
:1009C0009A938A930895BB84AA84998488847F80AB
:1009D0006E805D804C80BB81AA8199818881F0E026
:1009E000EC0FFD1FEF01089501E0089520E02D9325
:1009F00001501040E1F7089525912D9301501040CA
:100A0000D9F7089586E590E0FC0105911491FC0169
:100A10003296A591B491FC01349625913491422FE0
:100A2000432B19F0F901E8DF01C0E0DF069610E082
:080A30008C35910748F308958D
:00094A01AC
:00000001FF
